{
  "_format": "hh-sol-artifact-1",
  "contractName": "TradingPlatform",
  "sourceName": "contracts/SmartContract.sol",
  "abi": [
    {
      "inputs": [],
      "stateMutability": "payable",
      "type": "constructor"
    },
    {
      "anonymous": false,
      "inputs": [
        {
          "indexed": false,
          "internalType": "string",
          "name": "symbol",
          "type": "string"
        },
        {
          "indexed": false,
          "internalType": "uint256",
          "name": "price",
          "type": "uint256"
        }
      ],
      "name": "AssetListed",
      "type": "event"
    },
    {
      "anonymous": false,
      "inputs": [
        {
          "indexed": false,
          "internalType": "address",
          "name": "trader",
          "type": "address"
        },
        {
          "indexed": false,
          "internalType": "string",
          "name": "symbol",
          "type": "string"
        },
        {
          "indexed": false,
          "internalType": "uint256",
          "name": "price",
          "type": "uint256"
        },
        {
          "indexed": false,
          "internalType": "uint256",
          "name": "volume",
          "type": "uint256"
        },
        {
          "indexed": false,
          "internalType": "bool",
          "name": "isBuy",
          "type": "bool"
        }
      ],
      "name": "TradeExecuted",
      "type": "event"
    },
    {
      "inputs": [
        {
          "internalType": "string",
          "name": "",
          "type": "string"
        }
      ],
      "name": "assets",
      "outputs": [
        {
          "internalType": "string",
          "name": "symbol",
          "type": "string"
        },
        {
          "internalType": "uint256",
          "name": "price",
          "type": "uint256"
        },
        {
          "internalType": "uint256",
          "name": "totalVolume",
          "type": "uint256"
        },
        {
          "internalType": "bool",
          "name": "isListed",
          "type": "bool"
        }
      ],
      "stateMutability": "view",
      "type": "function"
    },
    {
      "inputs": [
        {
          "internalType": "string",
          "name": "_symbol",
          "type": "string"
        },
        {
          "internalType": "uint256",
          "name": "_volume",
          "type": "uint256"
        },
        {
          "internalType": "bool",
          "name": "_isBuy",
          "type": "bool"
        }
      ],
      "name": "executeTrade",
      "outputs": [],
      "stateMutability": "payable",
      "type": "function"
    },
    {
      "inputs": [
        {
          "internalType": "string",
          "name": "_symbol",
          "type": "string"
        }
      ],
      "name": "getAsset",
      "outputs": [
        {
          "components": [
            {
              "internalType": "string",
              "name": "symbol",
              "type": "string"
            },
            {
              "internalType": "uint256",
              "name": "price",
              "type": "uint256"
            },
            {
              "internalType": "uint256",
              "name": "totalVolume",
              "type": "uint256"
            },
            {
              "internalType": "bool",
              "name": "isListed",
              "type": "bool"
            }
          ],
          "internalType": "struct TradingPlatform.Asset",
          "name": "",
          "type": "tuple"
        }
      ],
      "stateMutability": "view",
      "type": "function"
    },
    {
      "inputs": [
        {
          "internalType": "address",
          "name": "_owner",
          "type": "address"
        },
        {
          "internalType": "string",
          "name": "_symbol",
          "type": "string"
        }
      ],
      "name": "getPortfolio",
      "outputs": [
        {
          "internalType": "uint256",
          "name": "",
          "type": "uint256"
        }
      ],
      "stateMutability": "view",
      "type": "function"
    },
    {
      "inputs": [
        {
          "internalType": "string",
          "name": "_symbol",
          "type": "string"
        },
        {
          "internalType": "uint256",
          "name": "_price",
          "type": "uint256"
        }
      ],
      "name": "listAsset",
      "outputs": [],
      "stateMutability": "nonpayable",
      "type": "function"
    },
    {
      "inputs": [
        {
          "internalType": "address",
          "name": "",
          "type": "address"
        },
        {
          "internalType": "string",
          "name": "",
          "type": "string"
        }
      ],
      "name": "portfolios",
      "outputs": [
        {
          "internalType": "uint256",
          "name": "",
          "type": "uint256"
        }
      ],
      "stateMutability": "view",
      "type": "function"
    },
    {
      "inputs": [
        {
          "internalType": "uint256",
          "name": "",
          "type": "uint256"
        }
      ],
      "name": "trades",
      "outputs": [
        {
          "internalType": "address",
          "name": "trader",
          "type": "address"
        },
        {
          "internalType": "string",
          "name": "symbol",
          "type": "string"
        },
        {
          "internalType": "uint256",
          "name": "price",
          "type": "uint256"
        },
        {
          "internalType": "uint256",
          "name": "volume",
          "type": "uint256"
        },
        {
          "internalType": "uint256",
          "name": "timestamp",
          "type": "uint256"
        },
        {
          "internalType": "bool",
          "name": "isBuy",
          "type": "bool"
        }
      ],
      "stateMutability": "view",
      "type": "function"
    },
    {
      "stateMutability": "payable",
      "type": "receive"
    }
  ],
  "bytecode": "0x6080604052611879806100136000396000f3fe6080604052600436106100745760003560e01c8063859362281161004e578063859362281461013c578063882254a81461017c5780639163f2d914610198578063cd5286d0146101c15761007b565b80631b9479f1146100805780631e6c598e146100bd578063572a650c146100ff5761007b565b3661007b57005b600080fd5b34801561008c57600080fd5b506100a760048036038101906100a29190610d20565b6101fe565b6040516100b49190610d95565b60405180910390f35b3480156100c957600080fd5b506100e460048036038101906100df9190610ddc565b610239565b6040516100f696959493929190610eb2565b60405180910390f35b34801561010b57600080fd5b5061012660048036038101906101219190610d20565b61033a565b6040516101339190610d95565b60405180910390f35b34801561014857600080fd5b50610163600480360381019061015e9190610f1a565b6103a0565b6040516101739493929190610f63565b60405180910390f35b61019660048036038101906101919190610fdb565b61047b565b005b3480156101a457600080fd5b506101bf60048036038101906101ba919061104a565b610909565b005b3480156101cd57600080fd5b506101e860048036038101906101e39190610f1a565b610a45565b6040516101f59190611171565b60405180910390f35b600160205281600052604060002081805160208101820180518482526020830160208501208183528095505050505050600091509150505481565b6002818154811061024957600080fd5b90600052602060002090600602016000915090508060000160009054906101000a900473ffffffffffffffffffffffffffffffffffffffff1690806001018054610292906111c2565b80601f01602080910402602001604051908101604052809291908181526020018280546102be906111c2565b801561030b5780601f106102e05761010080835404028352916020019161030b565b820191906000526020600020905b8154815290600101906020018083116102ee57829003601f168201915b5050505050908060020154908060030154908060040154908060050160009054906101000a900460ff16905086565b6000600160008473ffffffffffffffffffffffffffffffffffffffff1673ffffffffffffffffffffffffffffffffffffffff16815260200190815260200160002082604051610389919061122f565b908152602001604051809103902054905092915050565b6000818051602081018201805184825260208301602085012081835280955050505050506000915090508060000180546103d9906111c2565b80601f0160208091040260200160405190810160405280929190818152602001828054610405906111c2565b80156104525780601f1061042757610100808354040283529160200191610452565b820191906000526020600020905b81548152906001019060200180831161043557829003601f168201915b5050505050908060010154908060020154908060030160009054906101000a900460ff16905084565b60008360405161048b919061122f565b908152602001604051809103902060030160009054906101000a900460ff166104e9576040517f08c379a00000000000000000000000000000000000000000000000000000000081526004016104e090611292565b60405180910390fd5b6000826000856040516104fc919061122f565b90815260200160405180910390206001015461051891906112e1565b905081156105da5780341015610563576040517f08c379a000000000000000000000000000000000000000000000000000000000815260040161055a9061136f565b60405180910390fd5b82600160003373ffffffffffffffffffffffffffffffffffffffff1673ffffffffffffffffffffffffffffffffffffffff168152602001908152602001600020856040516105b1919061122f565b908152602001604051809103902060008282546105ce919061138f565b92505081905550610775565b82600160003373ffffffffffffffffffffffffffffffffffffffff1673ffffffffffffffffffffffffffffffffffffffff16815260200190815260200160002085604051610628919061122f565b9081526020016040518091039020541015610678576040517f08c379a000000000000000000000000000000000000000000000000000000000815260040161066f9061140f565b60405180910390fd5b804710156106bb576040517f08c379a00000000000000000000000000000000000000000000000000000000081526004016106b29061147b565b60405180910390fd5b82600160003373ffffffffffffffffffffffffffffffffffffffff1673ffffffffffffffffffffffffffffffffffffffff16815260200190815260200160002085604051610709919061122f565b90815260200160405180910390206000828254610726919061149b565b925050819055503373ffffffffffffffffffffffffffffffffffffffff166108fc829081150290604051600060405180830381858888f19350505050158015610773573d6000803e3d6000fd5b505b60026040518060c001604052803373ffffffffffffffffffffffffffffffffffffffff1681526020018681526020016000876040516107b4919061122f565b9081526020016040518091039020600101548152602001858152602001428152602001841515815250908060018154018082558091505060019003906000526020600020906006020160009091909190915060008201518160000160006101000a81548173ffffffffffffffffffffffffffffffffffffffff021916908373ffffffffffffffffffffffffffffffffffffffff1602179055506020820151816001019081610862919061167b565b5060408201518160020155606082015181600301556080820151816004015560a08201518160050160006101000a81548160ff02191690831515021790555050507f76928bc6c1b8956e8a332e3fadacfbe6898875e478b2576aea5bece37bd9520433856000876040516108d6919061122f565b90815260200160405180910390206001015486866040516108fb95949392919061174d565b60405180910390a150505050565b600082604051610919919061122f565b908152602001604051809103902060030160009054906101000a900460ff1615610978576040517f08c379a000000000000000000000000000000000000000000000000000000000815260040161096f906117f3565b60405180910390fd5b604051806080016040528083815260200182815260200160008152602001600115158152506000836040516109ad919061122f565b908152602001604051809103902060008201518160000190816109d0919061167b565b50602082015181600101556040820151816002015560608201518160030160006101000a81548160ff0219169083151502179055509050507f36e015e4f325ce38ece050003d9434a28e929f553df77af4fdfc7c75fb7152d68282604051610a39929190611813565b60405180910390a15050565b610a4d610b3e565b600082604051610a5d919061122f565b9081526020016040518091039020604051806080016040529081600082018054610a86906111c2565b80601f0160208091040260200160405190810160405280929190818152602001828054610ab2906111c2565b8015610aff5780601f10610ad457610100808354040283529160200191610aff565b820191906000526020600020905b815481529060010190602001808311610ae257829003601f168201915b5050505050815260200160018201548152602001600282015481526020016003820160009054906101000a900460ff1615151515815250509050919050565b60405180608001604052806060815260200160008152602001600081526020016000151581525090565b6000604051905090565b600080fd5b600080fd5b600073ffffffffffffffffffffffffffffffffffffffff82169050919050565b6000610ba782610b7c565b9050919050565b610bb781610b9c565b8114610bc257600080fd5b50565b600081359050610bd481610bae565b92915050565b600080fd5b600080fd5b6000601f19601f8301169050919050565b7f4e487b7100000000000000000000000000000000000000000000000000000000600052604160045260246000fd5b610c2d82610be4565b810181811067ffffffffffffffff82111715610c4c57610c4b610bf5565b5b80604052505050565b6000610c5f610b68565b9050610c6b8282610c24565b919050565b600067ffffffffffffffff821115610c8b57610c8a610bf5565b5b610c9482610be4565b9050602081019050919050565b82818337600083830152505050565b6000610cc3610cbe84610c70565b610c55565b905082815260208101848484011115610cdf57610cde610bdf565b5b610cea848285610ca1565b509392505050565b600082601f830112610d0757610d06610bda565b5b8135610d17848260208601610cb0565b91505092915050565b60008060408385031215610d3757610d36610b72565b5b6000610d4585828601610bc5565b925050602083013567ffffffffffffffff811115610d6657610d65610b77565b5b610d7285828601610cf2565b9150509250929050565b6000819050919050565b610d8f81610d7c565b82525050565b6000602082019050610daa6000830184610d86565b92915050565b610db981610d7c565b8114610dc457600080fd5b50565b600081359050610dd681610db0565b92915050565b600060208284031215610df257610df1610b72565b5b6000610e0084828501610dc7565b91505092915050565b610e1281610b9c565b82525050565b600081519050919050565b600082825260208201905092915050565b60005b83811015610e52578082015181840152602081019050610e37565b60008484015250505050565b6000610e6982610e18565b610e738185610e23565b9350610e83818560208601610e34565b610e8c81610be4565b840191505092915050565b60008115159050919050565b610eac81610e97565b82525050565b600060c082019050610ec76000830189610e09565b8181036020830152610ed98188610e5e565b9050610ee86040830187610d86565b610ef56060830186610d86565b610f026080830185610d86565b610f0f60a0830184610ea3565b979650505050505050565b600060208284031215610f3057610f2f610b72565b5b600082013567ffffffffffffffff811115610f4e57610f4d610b77565b5b610f5a84828501610cf2565b91505092915050565b60006080820190508181036000830152610f7d8187610e5e565b9050610f8c6020830186610d86565b610f996040830185610d86565b610fa66060830184610ea3565b95945050505050565b610fb881610e97565b8114610fc357600080fd5b50565b600081359050610fd581610faf565b92915050565b600080600060608486031215610ff457610ff3610b72565b5b600084013567ffffffffffffffff81111561101257611011610b77565b5b61101e86828701610cf2565b935050602061102f86828701610dc7565b925050604061104086828701610fc6565b9150509250925092565b6000806040838503121561106157611060610b72565b5b600083013567ffffffffffffffff81111561107f5761107e610b77565b5b61108b85828601610cf2565b925050602061109c85828601610dc7565b9150509250929050565b600082825260208201905092915050565b60006110c282610e18565b6110cc81856110a6565b93506110dc818560208601610e34565b6110e581610be4565b840191505092915050565b6110f981610d7c565b82525050565b61110881610e97565b82525050565b6000608083016000830151848203600086015261112b82826110b7565b915050602083015161114060208601826110f0565b50604083015161115360408601826110f0565b50606083015161116660608601826110ff565b508091505092915050565b6000602082019050818103600083015261118b818461110e565b905092915050565b7f4e487b7100000000000000000000000000000000000000000000000000000000600052602260045260246000fd5b600060028204905060018216806111da57607f821691505b6020821081036111ed576111ec611193565b5b50919050565b600081905092915050565b600061120982610e18565b61121381856111f3565b9350611223818560208601610e34565b80840191505092915050565b600061123b82846111fe565b915081905092915050565b7f4173736574206e6f74206c697374656400000000000000000000000000000000600082015250565b600061127c601083610e23565b915061128782611246565b602082019050919050565b600060208201905081810360008301526112ab8161126f565b9050919050565b7f4e487b7100000000000000000000000000000000000000000000000000000000600052601160045260246000fd5b60006112ec82610d7c565b91506112f783610d7c565b925082820261130581610d7c565b9150828204841483151761131c5761131b6112b2565b5b5092915050565b7f496e73756666696369656e74204554482073656e740000000000000000000000600082015250565b6000611359601583610e23565b915061136482611323565b602082019050919050565b600060208201905081810360008301526113888161134c565b9050919050565b600061139a82610d7c565b91506113a583610d7c565b92508282019050808211156113bd576113bc6112b2565b5b92915050565b7f496e73756666696369656e742061737365747320746f2073656c6c0000000000600082015250565b60006113f9601b83610e23565b9150611404826113c3565b602082019050919050565b60006020820190508181036000830152611428816113ec565b9050919050565b7f436f6e74726163742068617320696e73756666696369656e7420455448000000600082015250565b6000611465601d83610e23565b91506114708261142f565b602082019050919050565b6000602082019050818103600083015261149481611458565b9050919050565b60006114a682610d7c565b91506114b183610d7c565b92508282039050818111156114c9576114c86112b2565b5b92915050565b60008190508160005260206000209050919050565b60006020601f8301049050919050565b600082821b905092915050565b6000600883026115317fffffffffffffffffffffffffffffffffffffffffffffffffffffffffffffffff826114f4565b61153b86836114f4565b95508019841693508086168417925050509392505050565b6000819050919050565b600061157861157361156e84610d7c565b611553565b610d7c565b9050919050565b6000819050919050565b6115928361155d565b6115a661159e8261157f565b848454611501565b825550505050565b600090565b6115bb6115ae565b6115c6818484611589565b505050565b5b818110156115ea576115df6000826115b3565b6001810190506115cc565b5050565b601f82111561162f57611600816114cf565b611609846114e4565b81016020851015611618578190505b61162c611624856114e4565b8301826115cb565b50505b505050565b600082821c905092915050565b600061165260001984600802611634565b1980831691505092915050565b600061166b8383611641565b9150826002028217905092915050565b61168482610e18565b67ffffffffffffffff81111561169d5761169c610bf5565b5b6116a782546111c2565b6116b28282856115ee565b600060209050601f8311600181146116e557600084156116d3578287015190505b6116dd858261165f565b865550611745565b601f1984166116f3866114cf565b60005b8281101561171b578489015182556001820191506020850194506020810190506116f6565b868310156117385784890151611734601f891682611641565b8355505b6001600288020188555050505b505050505050565b600060a0820190506117626000830188610e09565b81810360208301526117748187610e5e565b90506117836040830186610d86565b6117906060830185610d86565b61179d6080830184610ea3565b9695505050505050565b7f417373657420616c7265616479206c6973746564000000000000000000000000600082015250565b60006117dd601483610e23565b91506117e8826117a7565b602082019050919050565b6000602082019050818103600083015261180c816117d0565b9050919050565b6000604082019050818103600083015261182d8185610e5e565b905061183c6020830184610d86565b939250505056fea26469706673582212200e92d37fbad38dee09b8d1e0211d4366dc8ce68af91f3db940c8d9d139f08d0f64736f6c63430008130033",
  "linkReferences": {},
  "deployedLinkReferences": {}
}